S0140000456D6265646465644C6162352E73726563C2
S11300000C9434000C9451000C9451000C94510045
S11300100C9451000C9451000C9451000C94510018
S11300200C9451000C9451000C9451000C94510008
S11300300C9451000C9451000C9451000C945100F8
S11300400C9451000C9451000C947A000C945100BF
S11300500C94B0000C9451000C9451000C94510079
S11300600C9451000C94510011241FBECFEFD8E022
S1130070DEBFCDBF11E0A0E0B1E0E8EDF2E002C0E8
S113008005900D92A031B107D9F721E0A0E1B1E0CC
S113009001C01D92A639B207E1F70E9453000C94E7
S11300A06A010C940000CF93DF93CDB7DEB72E978F
S11300B00FB6F894DEBF0FBECDBF60E875E280E0F6
S11300C090E00E94BF008EE0E1E0F1E0DE011196D5
S11300D001900D928A95E1F77894CE0101960E94E1
S11300E019010E942701892BE1F30E942C010E942F
S11300F0FA00F7CF1F920F920FB60F9211242F938D
S11301003F938F939F93AF93BF93EF93FF93E2E952
S1130110F1E0808191812091C600DC01A05FBE4F97
S11301202C93019691838083E0E9F1E02081318171
S11301302F5F3F4F318320838038910520F0109248
S1130140930110929201FF91EF91BF91AF919F9112
S11301508F913F912F910F900FBE0F901F90189584
S11301601F920F920FB60F9211248F9381E0809308
S113017000018F910F900FBE0F901F901895DC0116
S1130180CB01880F991FAA1FBB1F880F991FAA1F95
S1130190BB1F9C01AD01220F331F441F551F220FAB
S11301A0331F441F551F60E472E48FE090E00E9407
S11301B04801BA01A9014150510961097109DB01E2
S11301C0CA0188279F70AA27BB27892F9A2FAB2F94
S11301D0BB278093C5004093C400E1ECF0E080812C
S11301E0886D8083E0E1F1E086E8DF011D928A9565
S11301F0E9F70895909100019923E1F31092000129
S11302008093C60008950F931F93CF93DF936115D6
S1130210710551F08C01EC01060F171F89910E94A2
S1130220FA00C017D107D1F7DF91CF911F910F9139
S11302300895CF93DF93EC0189910E94FA0088819D
S11302408111FACF0E94FA00DF91CF910895809135
S11302509001909191010895E4E9F1E020813181C8
S1130260D901A05FBE4F8C912F5F3F4F3183208314
S1130270E0E9F1E0408151814150510951834083CB
S11302802038310520F010929501109294010895C0
S1130290A1E21A2EAA1BBB1BFD010DC0AA1FBB1F86
S11302A0EE1FFF1FA217B307E407F50720F0A21BF8
S11302B0B30BE40BF50B661F771F881F991F1A9465
S11302C069F760957095809590959B01AC01BD018F
S10B02D0CF010895F894FFCF5B
S11302D80153746172746564202121210A0D0000A0
S9030000FC
