S0140000456D6265646465644C6162352E73726563C2
S11300000C94CF000C94EC000C94EC000C94EC00D9
S11300100C94EC000C94EC000C94EC000C94EC00AC
S11300200C94EC000C94EC000C94EC000C94EC009C
S11300300C94EC000C94EC000C94EC000C94EC008C
S11300400C94EC000C94EC000C9422030C94EC0043
S11300500C9465030C94EC000C94EC000C94EC00F0
S11300600C94EC000C94EC004E414E494E4954590A
S1130070494E46CDCCCC3D0AD7233C17B7D138776F
S1130080CC2B329595E6241FB14F0A000020410085
S113009000C84200401C4620BCBE4CCA1B0E5AAECF
S11300A0C59D7400407A10F35A00A0724E180900DE
S11300B010A5D4E80000E87648170000E40B5402C9
S11300C00000CA9A3B000000E1F505000080969804
S11300D000000040420F000000A086010000001054
S11300E02700000000E80300000000640000000096
S11300F0000A00000000000100000000002C76D877
S113010088DC674F0823DFC1DFAE59E1B1B796E55C
S1130110E3E453C63AE651997696E8E6C28426EBC0
S1130120898C9B62ED407C6FFCEFBC9C9F40F2BAD3
S1130130A56FA5F490055A2AF75C936B6CF9676D6B
S1130140C11BFCE0E40D47FEF520E6B500D0ED90C0
S11301502E0300943577050080841E080000204E8D
S11301600A000000C80C333333330F986E12831126
S113017041EF8D2114893BE65516CFFEE6DB18D1FD
S1130180844B381BF77C1D901DA4BBE424203284CF
S1130190725E228100C9F124ECA1E53D27001124FF
S11301A01FBECFEFD8E0DEBFCDBF11E0A0E0B1E0CD
S11301B0EAE1F9E102C005900D92A037B107D9F741
S11301C021E0A0E7B1E001C01D92AF3FB207E1F723
S11301D00E94EE020C948B0C0C940000EAE7F0E011
S11301E0808187688083ECE7F0E0108280818064FE
S11301F080830E941F0408950F931F93CF93DF936E
S1130200EAE7F0E0808180648083808184FFFDCF11
S1130210009178001091790086E090E00E941F0719
S1130220EC01B80180E090E00E94B90520E030E0E4
S113023040EA50E40E94700620E030E040E85AE3CF
S11302400E9470068E0122E043E00E94FF06EAE766
S1130250F0E0808180618083CE01DF91CF911F9196
S11302600F910895CF93DF93EC0187E491E00E940E
S1130270BB03CE010E94BB038AE00E94B203CE01FD
S11302800E94B707DF91CF910895CF93DF93C82FD2
S1130290D62F823020F08CE491E00E94BB0388E5E5
S11302A00E9428048C2F0E947E048D2F0E947E04BD
S11302B00E947A04DF91CF9108952F923F924F923A
S11302C05F926F927F928F929F92AF92BF92CF92E2
S11302D0DF92EF92FF920F931F93CF93DF93CDB7EB
S11302E0DEB72E970FB6F894DEBF0FBECDBF682ED3
S11302F069834D8387E50E94B2032981622F70E0F0
S113030080E090E00E94BB059B01AC0160E074E2D8
S113031084E799E40E94180520E030E040E85CE3BB
S11303200E94700620E030E046E953E40E94A604EF
S113033069877A878B879C879D81892F90E098872E
S11303408F83181619060CF4A8C0BDC0ED85FE8570
S11303506191FE87ED87862D0E9445012BEA3AEADA
S11303604AEA50E4C701B6010E9470064B015C01E1
S113037020E030E040E85FE30E94130588230CF49A
S113038076C020E030E040E850E4C701B6010E94A6
S1130390700669837A838B839C8320E03FEF4FE769
S11303A057E40E946B0618160CF047C020E030E0BA
S11303B04AE754E4C701B6010E94180569837A83A9
S11303C08B839C8320E030E04AE755E40E9470066A
S11303D04B015C0120E030E040E85FE30E9413053C
S11303E088232CF120E03FEF4FE757E4C501B40127
S11303F00E946B061816B4F420E030E040E251E4A9
S113040069817A818B819C810E9470060E948A0591
S11304106115710569F1C2010197F1F76150710924
S1130420D1F726C0C501B4010E948A0502C061E06B
S1130430722DCB010197F1F71BC020E030E04FE7AC
S113044053E4C501B4010E946B06181654F4698183
S11304507A818B819C810E948A05CB010197F1F7F7
S11304600AC0C501B4010E948A05762E01C0732C0E
S1130470872D8A95F1F7ED85FE850E171F0709F084
S113048065CF2D813E812F5F3F4F3E832D838F812A
S113049098852817390771F416C01E821D8207E457
S11304A011E00F2EF0E94F2E55245394F02D3324F0
S11304B03394212CE7E0F1E0C984DA84EB84FC84F2
S11304C0FE87ED8743CF2E960FB6F894DEBF0FBE9E
S11304D0CDBFDF91CF911F910F91FF90EF90DF90EF
S11304E0CF90BF90AF909F908F907F906F905F90D0
S11304F04F903F902F900895EF92FF920F931F9388
S1130500CF93DF9300D0CDB7DEB78C018CE290E0BF
S11305109A838983BE016F5F7F4FC8010E9462087E
S1130520FC018181873429F40E94FC000E9432017D
S113053049C0873519F5BE016F5F7F4F80E090E0B9
S11305400E9462080E944408F82EBE016F5F7F4F2C
S113055080E090E00E9462080E944408E82EBE01F8
S11305606F5F7F4F80E090E00E9462080E94440821
S1130570482F6E2D8F2D0E945D0124C08335F9F420
S1130580BE016F5F7F4F80E090E00E9462080E948E
S11305904408F82EBE016F5F7F4F80E090E00E9418
S11305A062080E94400820E030E04CE452E40E94DB
S11305B070060E948A058F2D0E94450103C088E5BC
S11305C00E94B203C8010E94B7070F900F90DF91F9
S11305D0CF911F910F91FF90EF900895CF93DF93E8
S11305E0CDB7DEB729970FB6F894DEBF0FBECDBFE7
S11305F089E0E6E6F1E0DE01119601900D928A951C
S1130600E1F720E835E240E050E060EA76E881E096
S113061090E00E94EE0060E875E280E090E00E94C5
S113062077037894CE0101960E94BB038AE00E946E
S1130630B2030E9474038823E1F30E94E8030E943A
S11306407C02F7CF1F920F920FB60F9211242F93B3
S11306508F939F93AF93BF93EF93FF938091C600C3
S11306608A3021F08091C6008D3021F481E080939E
S1130670700114C0E5EFF1E0808191812091C60002
S1130680DC01AD58BE4F2C93019691838083E3EF38
S1130690F1E0808191810196918380838091F501BD
S11306A09091F6018038910520F01092F601109295
S11306B0F501FF91EF91BF91AF919F918F912F9190
S11306C00F900FBE0F901F9018951F920F920FB6A8
S11306D00F9211248F9381E0809300018F910F90EA
S11306E00FBE0F901F901895809170010895DC0142
S11306F0CB01880F991FAA1FBB1F880F991FAA1F20
S1130700BB1F9C01AD01220F331F441F551F220F35
S1130710331F441F551F60E074E284EF90E00E9491
S1130720DD06BA01A9014150510961097109DB01D2
S1130730CA0188279F70AA27BB27892F9A2FAB2F1E
S1130740BB278093C5004093C400E1ECF0E08081B6
S1130750886D8083E3E7F1E086E8DF011D928A95E6
S1130760E9F70895909100019923E1F310920001B3
S11307708093C6000895CF93DF93EC0189910E9482
S1130780B20388818111FACFDF91CF9108958091CE
S1130790F3019091F4010895E7EFF1E020813181B4
S11307A0D901AD58BE4F8C912F5F3F4F31832083C9
S11307B0E3EFF1E04081518141505109518340837D
S11307C02038310520F01092F8011092F7010895B5
S11307D0CF92DF92EF92FF920F931F93CF931092D9
S11307E070010091F3011091F401C80101960E9477
S11307F01F077C01012BA9F0C0E00F2EF3EFCF2ED1
S1130800F1E0DF2EF02D87010C0F111D0E94CC03A7
S1130810F8018083CF5FF60180819181892B99F75C
S113082001C0C0E0F701EC0FF11D1082C701CF91A8
S11308301F910F91FF90EF90DF90CF900895109249
S1130840B90088E48093B80084E08093BC000895E4
S113085094EA9093BC00ECEBF0E090819923ECF7E0
S11308609091B900987F983011F09031A1F4809361
S1130870BB0084E88093BC00ECEBF0E0808188232B
S1130880ECF79091B900987F983139F081E0903479
S113089029F480E0089581E0089580E00895CF93DD
S11308A0DF93ECEBF0E024EAA9EBB0E0CBEBD0E093
S11308B034E844E9208390819923ECF79C91987F54
S11308C0983011F09031B1F7888330839081992367
S11308D0ECF79C91987F903211F0983529F440837D
S11308E0908194FDFDCFE6CFDF91CF9108950E94D2
S11308F02804089584E98093BC0008958093BB0084
S113090084E88093BC00ECEBF0E080818823ECF772
S11309109091B900987F81E0983209F480E00895BD
S113092084EC8093BC00ECEBF0E080818823ECF74E
S11309308091BB00089584E88093BC00ECEBF0E068
S113094080818823ECF78091BB0008955058BB2721
S1130950AA270E94BE040C9431060E94230638F094
S11309600E942A0620F039F49F3F19F426F40C94CF
S113097020060EF4E095E7FB0C941A06E92F0E947A
S1130980420658F3BA17620773078407950720F0E5
S113099079F4A6F50C9464060EF4E0950B2EBA2FA8
S11309A0A02D0B01B90190010C01CA01A001112471
S11309B0FF27591B99F0593F50F4503E68F11A161D
S11309C0F040A22F232F342F4427585FF3CF4695AE
S11309D037952795A795F0405395C9F77EF41F16D0
S11309E0BA0B620B730B840BBAF09150A1F0FF0F9A
S11309F0BB1F661F771F881FC2F70EC0BA0F621F86
S1130A00731F841F48F4879577956795B795F79575
S1130A109E3F08F0B0CF9395880F08F09927EE0F0A
S1130A209795879508950E94F60508F481E0089546
S1130A300E942C050C9431060E942A0658F00E944C
S1130A40230640F029F45F3F29F00C941A06511153
S1130A500C9465060C9420060E94420668F39923C0
S1130A60B1F3552391F3951B550BBB27AA276217A6
S1130A707307840738F09F5F5F4F220F331F441FB3
S1130A80AA1FA9F335D00E2E3AF0E0E832D09150E7
S1130A905040E695001CCAF72BD0FE2F29D0660FD4
S1130AA0771F881FBB1F261737074807AB07B0E817
S1130AB009F0BB0B802DBF01FF2793585F4F3AF01D
S1130AC09E3F510578F00C941A060C9465065F3F1E
S1130AD0E4F3983ED4F3869577956795B795F795A3
S1130AE09F5FC9F7880F911D9695879597F908958B
S1130AF0E1E0660F771F881FBB1F62177307840727
S1130B00BA0720F0621B730B840BBA0BEE1F88F735
S1130B10E09508950E944A0688F09F5798F0B92FEF
S1130B209927B751B0F0E1F0660F771F881F991F1E
S1130B301AF0BA95C9F714C0B13091F00E94640656
S1130B40B1E008950C946406672F782F8827B85F66
S1130B5039F0B93FCCF3869577956795B395D9F776
S1130B603EF490958095709561957F4F8F4F9F4F80
S1130B700895E89409C097FB3EF49095809570958C
S1130B8061957F4F8F4F9F4F9923A9F0F92F96E9D5
S1130B90BB279395F695879577956795B795F1114A
S1130BA0F8CFFAF4BB0F11F460FF1BC06F5F7F4FE7
S1130BB08F4F9F4F16C0882311F096E911C07723F9
S1130BC021F09EE8872F762F05C0662371F096E802
S1130BD0862F70E060E02AF09A95660F771F881FD1
S1130BE0DAF7880F9695879597F90895990F000875
S1130BF0550FAA0BE0E8FEEF16161706E807F907EB
S1130C00C0F012161306E407F50798F0621B730B85
S1130C10840B950B39F40A2661F0232B242B252B06
S1130C2021F408950A2609F4A140A6958FEF811DA9
S1130C30811D089597F99F6780E870E060E008954A
S1130C409FEF80EC089500240A94161617061806E0
S1130C500906089500240A941216130614060506BC
S1130C600895092E0394000C11F4882352F0BB0F4D
S1130C7040F4BF2B11F460FF04C06F5F7F4F8F4FB0
S1130C809F4F089557FD9058440F551F59F05F3FEB
S1130C9071F04795880F97FB991F61F09F3F79F09A
S1130CA087950895121613061406551FF2CF46951C
S1130CB0F1DF08C0161617061806991FF1CF86959E
S1130CC07105610508940895E894BB276627772782
S1130CD0CB0197F908950E94F60508F48FEF089563
S1130CE00E9483060C9431060E94230638F00E9469
S1130CF02A0620F0952311F00C941A060C94200671
S1130D0011240C9465060E94420670F3959FC1F36A
S1130D10950F50E0551F629FF001729FBB27F00DA5
S1130D20B11D639FAA27F00DB11DAA1F649F6627FA
S1130D30B00DA11D661F829F2227B00DA11D621F49
S1130D40739FB00DA11D621F839FA00D611D221F03
S1130D50749F3327A00D611D231F849F600D211DE7
S1130D60822F762F6A2F11249F5750409AF0F1F06A
S1130D7088234AF0EE0FFF1FBB1F661F771F881FD3
S1130D8091505040A9F79E3F510580F00C941A06EB
S1130D900C9465065F3FE4F3983ED4F3869577950B
S1130DA06795B795F795E7959F5FC1F7FE2B880F79
S1130DB0911D9695879597F90895A1E21A2EAA1B7D
S1130DC0BB1BFD010DC0AA1FBB1FEE1FFF1FA217F7
S1130DD0B307E407F50720F0A21BB30BE40BF50BF4
S1130DE0661F771F881F991F1A9469F7609570957D
S1130DF0809590959B01AC01BD01CF010895EF92C0
S1130E000F931F93CF93DF93E80147FD02C034E0B3
S1130E1001C034E1042E000C550B57FF03C051955B
S1130E2041955109E32E022F242FAE010E9496080A
S1130E30CE01DF91CF911F910F91EF9008950F9301
S1130E401F93CF93DF938230910510F482E090E0FA
S1130E50E091FB01F091FC0120E030E0A0E0B0E083
S1130E60309719F140815181028113814817590744
S1130E70C8F08417950769F4109731F012960C9313
S1130E80129713961C9327C00093FB011093FC0147
S1130E9022C02115310519F04217530718F49A019D
S1130EA0BD01EF01DF01F801DBCF21153105F9F0B8
S1130EB0281B390B2430310580F48A819B8161150C
S1130EC0710521F0FB019383828304C09093FC019C
S1130ED08093FB01FE01329644C0FE01E20FF31F32
S1130EE08193919322503109398328833AC0209108
S1130EF0F9013091FA01232B41F42091030130913F
S1130F0004013093FA012093F901209101013091F9
S1130F1002012115310541F42DB73EB74091050179
S1130F2050910601241B350BE091F901F091FA016F
S1130F30E217F307A0F42E1B3F0B2817390778F0AC
S1130F40AC014E5F5F4F2417350748F04E0F5F1F0B
S1130F505093FA014093F9018193919302C0E0E028
S1130F60F0E0CF01DF91CF911F910F910895CF93BE
S1130F70DF93009709F481C0FC0132971382128237
S1130F80A091FB01B091FC01109781F42081318183
S1130F90820F931F2091F9013091FA012817390724
S1130FA051F5F093FA01E093F90167C0ED0120E0F7
S1130FB030E0CE17DF0740F44A815B819E01411582
S1130FC05105F1F0EA01F5CFD383C2834081518109
S1130FD0840F951FC817D90759F488819981840F04
S1130FE0951F0296918380838A819B819383828358
S1130FF02115310529F4F093FC01E093FB013DC078
S1131000E901FB83EA8349915991C40FD51FEC1779
S1131010FD0761F480819181840F951F0296E90197
S113102099838883828193819B838A83E0E0F0E0C3
S113103012968D919C911397009719F0FD01DC0194
S1131040F7CF8D919C9111979D012E5F3F4F820F99
S1131050931F2091F9013091FA012817390769F497
S1131060309729F41092FC011092FB0102C0138204
S11310701282B093FA01A093F901DF91CF91089500
S1131080662777270C94F009FC0188279927E894B0
S113109021912032E9F3293010F02E30C8F32B329D
S11310A041F02D3239F4689404C00E948E08820FF6
S11310B0911D219120532A30C0F31EF490958195FF
S11310C09F4F089541E751E00E9467080895FA018F
S11310D0A191B081009719F41097E1F0CD01DC01E2
S11310E0CD010D90002011F4C00113C0FB0121912A
S11310F0222319F02015D9F7F3CFFB0121912015F4
S113110019F41E92119606C02223C1F70D900020F7
S1131110A1F7D001FA01A193B08308957AE0979FD3
S1131120902D879F802D910D11240895A9E0B0E0A2
S1131130ECE9F8E00C944B0C6A01122FB02E2BE36F
S1131140201720F0FF24F394F00E02C02CE3F22EBB
S11311500F2D27E0AE014F5F5F4F0E943E0BBC0195
S11311604981842F8970813031F0E1FC06C0E0FEB2
S113117006C090E205C09DE203C09BE201C090E07E
S11311805E2D507143FF3CC0911102C083E001C049
S113119084E0811718F4212F281B01C020E051118D
S11311A00BC0F601822F30E2882319F0319381506D
S11311B0FBCFC20ED11C20E0992329F0D6019C93C9
S11311C0F60131966F01C6010396E2FE0AC03EE4C1
S11311D0D6013C9341E411964C93119712963C939B
S11311E006C03EE6F601308341E641833283FC01CA
S11311F0322F40E2332309F442C041933150FACFF5
S113120042FF44C0911102C083E001C084E0811711
S113121018F4212F281B01C020E051110BC0F60146
S1131220822F30E2882319F031938150FBCFC20E14
S1131230D11C20E0992329F0D6019C93F601319624
S11312406F01C6010396E2FE0BC039E4D6013C935C
S11312503EE411963C93119736E412963C9307C0F2
S113126039E6F60130833EE6318336E63283FC010B
S1131270322F40E2332319F041933150FBCFFC016C
S1131280E20FF11D10828EEF9FEFA6C021E030E047
S1131290911102C020E030E0161617061CF4FB0181
S11312A0319602C0E1E0F0E02E0F3F1FBB2021F099
S11312B0EB2DF0E0319602C0E0E0F0E02E0F3F1F8E
S11312C0E12FF0E02E173F071CF4121B212F01C061
S11312D020E08E2D887159F4F601822F30E28823A4
S11312E019F031938150FBCFC20ED11C20E0992319
S11312F029F0D6019C93F60131966F0151110BC070
S1131300F601822F90E3882319F091938150FBCF4B
S1131310C20ED11C20E00F2D060F9A81342F30719C
S113132044FF03C0913309F40150101624F409302A
S113133018F008E001C001E0AB0177FF02C040E013
S113134050E0FB01E41BF50BA1E0B0E0AC0FBD1FC6
S1131350EA0FFB1F8EE2A82E4B01801A91080B2D79
S113136010E01195019511094F3FBFEF5B0721F480
S1131370D601AC9211966D01641775072CF0841692
S1131380950614F4818101C080E3415051093196DE
S1131390D60111967D014017510724F0D6018C9394
S11313A06701E2CF6417750739F4963320F4953357
S11313B019F4311101C081E3F6018083F701822F12
S11313C090E2882319F091938150FBCFF701E20F4B
S11313D0F11D108280E090E02996ECE00C94670CFB
S11313E0A0E0B0E0E6EFF9E00C944B0CEC016B01EB
S11313F06115710519F0FB01918380837E01FFEF74
S1131400EF1AFF0A0881802F90E00E94160C892BA6
S113141011F0E701F3CF0D3239F47E0182E0E80EDA
S1131420F11C098111E008C00B3229F47E0192E01D
S1131430E90EF11C098110E0E701219743E050E037
S113144060E770E0CE010E941F0C892BC1F4239643
S113145045E050E06BE670E0CE010E941F0C892B42
S113146009F42596C114D10419F0F601D183C0837F
S11314701111F6C060E070E080E89FE7FAC043E035
S113148050E068E670E0CE010E941F0C892B59F4ED
S1131490C114D10409F4E9C0F2E0EF0EF11CF60125
S11314A0F182E082E2C020E030E0A901C0E0D0E0B7
S11314B0F70180EDA82EA00E89E08A1530F1912F56
S11314C09260B92E812F887012FF04C0811124C04C
S11314D0219622C081112197A5E0B0E00E943A0C28
S11314E0DC01CB01880F991FAA1FBB1F9C01AD0112
S11314F02A0D311D411D511D283989E93807480736
S113150089E1580748F0166006C09EEFA9120AC088
S113151013FD40C01860B12E8FEFE81AF80A00815D
S11315201B2DC6CF802F8F7D8534A1F580818D3210
S113153011F4106106C08B3221F0319661E070E045
S113154004C08181329662E070E080538A3018F0E2
S1131550E61BF70B1FC060E070E060389CE0790781
S11315605CF4DB01AA0FBB1FAA0FBB1F6A0F7B1F12
S1131570660F771F680F711D3196DF0111978C91EB
S113158080538A3050F314FF03C07195619571093B
S1131590C60FD71F11FF08C0C114D10429F0CF0111
S11315A00197F60191838083CA01B9010E94B905AC
S11315B0212F2370233019F04B015C0106C04B012D
S11315C05C01B7FAB094B7F8B09420E030E0A90118
S11315D0C501B4010E941305882309F43EC0D7FF56
S11315E006C0D195C195D10907E810E002C00FE902
S11315F010E06801F8E1CF1AD10890E2E92EF12C4D
S1131600CE15DF0574F0F80125913591459154917B
S1131610C501B4010E9470064B015C01CE19DF09BB
S1131620EFCF04501109F594E7940C151D0541F70B
S11316308A2D880F8B2D881F8F3F49F020E030E0E2
S1131640A901C501B4010E941305811106C082E2FB
S113165090E09093FE018093FD01C501B40109C09F
S113166060E070E080E89FEF04C060E070E080EC30
S11316709FE7CDB7DEB7ECE00C94670C283008F098
S113168027E03327DA01990F311D87FD9160009619
S11316906105710539F432602E5F3D9330E32A957C
S11316A0E1F708959F3F30F080387105610509F036
S11316B03C5F3C5F3D93913008F08068911DDF935F
S11316C0CF931F930F93FF92EF92192F987F9695C4
S11316D0E92F96959695E90FFF27E350FF4F992739
S11316E03327EE24FF24A701E7010590089407940B
S11316F028F4360FE71EF81E491F511D660F771F89
S1131700881F991F0694A1F70590079428F4E70E03
S1131710F81E491F561FC11D770F881F991F661F8A
S11317200694A1F70590079428F4F80E491F561F54
S1131730C71FD11D880F991F661F771F0694A1F735
S11317400590079420F4490F561FC71FD81F990FFF
S1131750661F771F881F0694A9F784911095177048
S113176041F0D695C79557954795F794E7941A9500
S1131770C1F7E3EAF0E0689415901591359165910D
S1131780959105907FE27395E118F10A430B560B8E
S1131790C90BD009C0F7E10CF11E431F561FC91F26
S11317A0D01D7EF4703311F48A95E6CFE89401508D
S11317B030F0080F0AF40027021708F4202F2395AD
S11317C0022F7A3328F079E37D932A95E9F710C044
S11317D07D932A9589F6069497956795379517957D
S11317E01794E118F10A430B560BC90BD00998F072
S11317F023957E9173957A3308F070E37C932013DC
S1131800B8F77E9170617D9330F0839571E37D9399
S113181070E32A95E1F71124EF90FF900F911F9147
S1131820CF91DF91992787FD9095089591110C949C
S1131830370C803219F089508550C8F70895FB01A0
S1131840DC014150504088F08D9181341CF08B357F
S11318500CF4805E659161341CF06B350CF4605EB1
S1131860861B611171F3990B0895881BFCCF99278E
S1131870882708950E947C0CA59F900DB49F900D1D
S1131880A49F800D911D112408952F923F924F9291
S11318905F926F927F928F929F92AF92BF92CF92FC
S11318A0DF92EF92FF920F931F93CF93DF93CDB705
S11318B0DEB7CA1BDB0B0FB6F894DEBF0FBECDBF7D
S11318C009942A88398848885F846E847D848C844E
S11318D09B84AA84B984C884DF80EE80FD800C8157
S11318E01B81AA81B981CE0FD11D0FB6F894DEBF3A
S11318F00FBECDBFED010895A29FB001B39FC001FB
S1131900A39F700D811D1124911DB29F700D811D27
S10D19101124911D0895F894FFCFEF
S113191A010000FF012000808D99A5B1BCC7D1DB6D
S113192AE3EAF1F6FAFEFFFFFFFEFAF6F1EAE3DB79
S113193AD1C7BCB1A5998D8073675B4F44392F25F4
S113194A1D160F0A060201000102060A0F161D25BA
S113195A2F39444F5B677356203D2000444143208E
S113196A6D757374206569746865722062652030C8
S113197A206F72203100537461727465642100000F
S9030000FC
