:100000000C9434000C9451000C9451000C94510049
:100010000C9451000C9451000C9451000C9451001C
:100020000C9451000C9451000C9451000C9451000C
:100030000C9451000C9451000C9451000C945100FC
:100040000C9451000C9451000C947A000C945100C3
:100050000C94B2000C9451000C9451000C9451007B
:100060000C9451000C94510011241FBECFEFD8E026
:10007000DEBFCDBF11E0A0E0B1E0E6EDF2E002C0EE
:1000800005900D92A031B107D9F721E0A0E1B1E0D0
:1000900001C01D92A639B207E1F70E9453000C94EB
:1000A00069010C940000CF93DF93CDB7DEB72E9794
:1000B0000FB6F894DEBF0FBECDBF60E875E280E0FA
:1000C00090E00E94C1008EE0E1E0F1E0DE011196D7
:1000D00001900D928A95E1F77894CE0101960E94E5
:1000E00014010E942201892BE1F30E9427010E9442
:1000F000F500F7CF1F920F920FB60F9211248F9336
:100100009F93EF93FF93E0911201F091130180917F
:10011000C600EA5EFE4F8083809114019091150124
:100120000196909315018093140180911201909192
:100130001301019690931301809312018091120193
:10014000909113018038910520F0109213011092C4
:100150001201FF91EF919F918F910F900FBE0F9021
:100160001F9018951F920F920FB60F9211248F9324
:1001700081E0809300018F910F900FBE0F901F9030
:100180001895DC01CB01880F991FAA1FBB1F880F90
:10019000991FAA1FBB1F9C01AD01220F331F441FD3
:1001A000551F220F331F441F551F60E074E284EF78
:1001B00090E00E944701BA01A9014150510961092B
:1001C0007109DB01CA0188279F70AA27BB27892FE5
:1001D0009A2FAB2FBB278093C5004093C400E1EC5E
:1001E000F0E08081886D80830895909100019923CB
:1001F000E1F3109200018093C60008950F931F93BE
:10020000CF93DF936115710551F08C01EC01060F5E
:10021000171F89910E94F500C017D107D1F7DF9110
:10022000CF911F910F910895CF93DF93EC018991A6
:100230000E94F50088818111FACF0E94F500DF91BC
:10024000CF91089580911401909115010895209106
:10025000100130911101F901EA5EFE4F80812F5F9C
:100260003F4F3093110120931001409114015091A0
:100270001501415051095093150140931401203844
:10028000310520F010921101109210010895A1E2A1
:100290001A2EAA1BBB1BFD010DC0AA1FBB1FEE1F00
:1002A000FF1FA217B307E407F50720F0A21BB30B4B
:1002B000E40BF50B661F771F881F991F1A9469F7C7
:1002C00060957095809590959B01AC01BD01CF0123
:0602D0000895F894FFCF31
:1002D6000153746172746564202121210A0D0000A6
:00000001FF
