:100000000C9434000C9449000C9449000C94490061
:100010000C9449000C9449000C9449000C9449003C
:100020000C9449000C9449000C9449000C9449002C
:100030000C9449000C9449000C9449000C9449001C
:100040000C9449000C9449000C9469000C944900EC
:100050000C9473000C9449000C9449000C944900D2
:100060000C9449000C94490011241FBECFEFD8E036
:10007000DEBFCDBF11E0A0E0B1E0EEE0F2E002C0F3
:1000800005900D92A230B107D9F70E944C000C9454
:1000900005010C940000089560E875E280E090E0AE
:1000A0000E948200789481E40E94B600C1E401C0FD
:1000B000C1E4CF5F2FEF83ED90E32150804090406B
:1000C000E1F700C000008C2F0E94B600CB3580F70E
:1000D000F0CF1F920F920FB60F9211240F900FBE08
:1000E0000F901F9018951F920F920FB60F92112428
:1000F0008F9381E0809300018F910F900FBE0F903E
:100100001F901895DC01CB01880F991FAA1FBB1FF8
:10011000880F991FAA1FBB1F9C01AD01220F331F1F
:10012000441F551F220F331F441F551F60E074E208
:1001300084EF90E00E94E300BA01A9014150510907
:1001400061097109DB01CA0188279F70AA27BB27B3
:10015000892F9A2FAB2FBB278093C5004093C400F3
:10016000E1ECF0E08081886D80830895909100013A
:100170009923E1F3109200018093C60008950F9334
:100180001F93CF93DF936115710551F08C01EC0142
:10019000060F171F89910E94B600C017D107D1F72B
:1001A000DF91CF911F910F910895CF93DF93EC01D1
:1001B00089910E94B60088818111FACF0E94B60011
:1001C000DF91CF910895A1E21A2EAA1BBB1BFD015E
:1001D0000DC0AA1FBB1FEE1FFF1FA217B307E40726
:1001E000F50720F0A21BB30BE40BF50B661F771F7E
:1001F000881F991F1A9469F760957095809590955E
:0E0200009B01AC01BD01CF010895F894FFCF22
:02020E000100ED
:00000001FF
