:100000000C94CF000C94EC000C94EC000C94EC00DD
:100010000C94EC000C94EC000C94EC000C94EC00B0
:100020000C94EC000C94EC000C94EC000C94EC00A0
:100030000C94EC000C94EC000C94EC000C94EC0090
:100040000C94EC000C94EC000C945A020C94EC0010
:100050000C94A3020C94EC000C94EC000C94EC00B7
:100060000C94EC000C94EC004E414E494E4954590E
:10007000494E46CDCCCC3D0AD7233C17B7D1387773
:10008000CC2B329595E6241FB14F0A000020410089
:1000900000C84200401C4620BCBE4CCA1B0E5AAED3
:1000A000C59D7400407A10F35A00A0724E180900E2
:1000B00010A5D4E80000E87648170000E40B5402CD
:1000C0000000CA9A3B000000E1F505000080969808
:1000D00000000040420F000000A086010000001058
:1000E0002700000000E8030000000064000000009A
:1000F000000A00000000000100000000002C76D87B
:1001000088DC674F0823DFC1DFAE59E1B1B796E560
:10011000E3E453C63AE651997696E8E6C28426EBC4
:10012000898C9B62ED407C6FFCEFBC9C9F40F2BAD7
:10013000A56FA5F490055A2AF75C936B6CF9676D6F
:10014000C11BFCE0E40D47FEF520E6B500D0ED90C4
:100150002E0300943577050080841E080000204E91
:100160000A000000C80C333333330F986E1283112A
:1001700041EF8D2114893BE65516CFFEE6DB18D101
:10018000844B381BF77C1D901DA4BBE424203284D3
:10019000725E228100C9F124ECA1E53D2700112403
:1001A0001FBECFEFD8E0DEBFCDBF11E0A0E0B1E0D1
:1001B000E8EDF5E102C005900D92A635B107D9F73B
:1001C00021E0A6E5B1E001C01D92A53EB207E1F72E
:1001D0000E942A020C94EA0A0C940000CF92DF924B
:1001E000EF92FF9269017A01EAE7F0E08081876887
:1001F0008083ECE7F0E010828081806480830E943D
:100200005D03C701B6010E94B502FF90EF90DF9039
:10021000CF9008950F931F93CF93DF93EAE7F0E019
:10022000808180648083808184FFFDCF009178008D
:100230001091790086E090E00E947E05EC01B80103
:1002400080E090E00E94180420E030E040EA50E4B2
:100250000E94A70420E030E040E85AE30E94A7048F
:100260008E0122E043E00E945E05EAE7F0E0808133
:1002700080618083CE01DF91CF911F910F9108950E
:10028000CF93DF93EC0187E491E00E94F902CE0165
:100290000E94F9028AE00E94F002CE010E94160636
:1002A000DF91CF910895CF92DF92EF92FF92CF939B
:1002B000C82F6A017B0181E50E946603C23018F4F1
:1002C0008C2F0E94BC0320E030E0A901C701B601D9
:1002D0000E94A20488238CF020E030E040EA50E441
:1002E000C701B6010E94E40318163CF0C701B6012D
:1002F0000E94E903862F0E94BC030E94B803CF919D
:10030000FF90EF90DF90CF900895BF92CF92DF9251
:10031000EF92FF920F931F93CF93DF93B82EC42ECB
:1003200087E50E94F002D12C1C141D04B4F01CC0FF
:10033000699170E080E090E00E941804AB01BC017C
:100340008B2D0E9453010C171D0791F78FEFE81AB0
:10035000F80AEC14FD0429F407C0E12CF12C07E4A1
:1003600011E0C7E0D1E0E4CFDF91CF911F910F9171
:10037000FF90EF90DF90CF90BF900895EF92FF92A3
:100380000F931F93CF93DF9300D0CDB7DEB78C01CF
:100390008CE290E09A838983BE016F5F7F4FC80132
:1003A0000E94C106FC018181873429F40E940A0160
:1003B0000E94400143C0873519F5BE016F5F7F4F32
:1003C00080E090E00E94C1060E94A306F82EBE01C4
:1003D0006F5F7F4F80E090E00E94C1060E94A306FD
:1003E000E82EBE016F5F7F4F80E090E00E94C10663
:1003F0000E94A306482F6E2D8F2D0E9485011EC0DE
:100400008335C9F4BE016F5F7F4F80E090E00E94AA
:10041000C1060E94A306F82EBE016F5F7F4F80E0E9
:1004200090E00E94C1060E949F06AB01BC018F2D87
:100430000E94530103C088E50E94F002C8010E9497
:1004400016060F900F90DF91CF911F910F91FF90A3
:10045000EF900895CF93DF93CDB7DEB729970FB60E
:10046000F894DEBF0FBECDBF89E0ECE4F1E0DE0121
:10047000119601900D928A95E1F720E835E240E06F
:1004800050E060EA76E881E090E00E94EE00789427
:100490000E940A01CE0101960E94F9028AE00E94A0
:1004A000F0020E94B2028823E1F30E9426030E9418
:1004B000BE01F7CF1F920F920FB60F9211242F9308
:1004C0008F939F93AF93BF93EF93FF938091C60059
:1004D0008A3021F08091C6008D3051F48091D9018D
:1004E0009091DA01892BC1F081E08093560114C00C
:1004F000EBEDF1E0808191812091C600DC01A75AEB
:10050000BE4F2C93019691838083E9EDF1E08081C9
:1005100091810196918380838091DB019091DC0130
:100520008038910520F01092DC011092DB01FF91E0
:10053000EF91BF91AF919F918F912F910F900FBE2F
:100540000F901F9018951F920F920FB60F921124C3
:100550008F9381E0809300018F910F900FBE0F90D9
:100560001F901895809156010895DC01CB01880FEA
:10057000991FAA1FBB1F880F991FAA1FBB1F9C0191
:10058000AD01220F331F441F551F220F331F441F7D
:10059000551F60E074E284EF90E00E943C05BA01D0
:1005A000A9014150510961097109DB01CA0188277C
:1005B0009F70AA27BB27892F9A2FAB2FBB27809329
:1005C000C5004093C400E1ECF0E08081886D808339
:1005D000E9E5F1E086E8DF011D928A95E9F70895E3
:1005E000909100019923E1F3109200018093C600DD
:1005F0000895CF93DF93EC0189910E94F0028881E6
:100600008111FACFDF91CF9108958091D901909116
:10061000DA010895EDEDF1E020813181D901A75A89
:10062000BE4F8C912F5F3F4F31832083E9EDF1E086
:100630004081518141505109518340832038310517
:1006400020F01092DE011092DD010895CF92DF922A
:10065000EF92FF920F931F93CF9310925601009148
:10066000D9011091DA01C80101960E947E057C0132
:10067000012BA9F0C0E00F2EF9EDCF2EF1E0DF2E17
:10068000F02D87010C0F111D0E940A03F8018083D1
:10069000CF5FF60180819181892B99F701C0C0E07D
:1006A000F701EC0FF11D1082C701CF911F910F913F
:1006B000FF90EF90DF90CF9008951092B90088E4FA
:1006C0008093B80084E08093BC00089594EA9093EE
:1006D000BC00ECEBF0E090819923ECF79091B9002D
:1006E000987F983011F09031A1F48093BB0084E89A
:1006F0008093BC00ECEBF0E080818823ECF79091D4
:10070000B900987F983139F081E0903429F480E085
:10071000089581E0089580E00895CF93DF93ECEB96
:10072000F0E024EAA9EBB0E0CBEBD0E034E844E918
:10073000208390819923ECF79C91987F983011F059
:100740009031B1F78883308390819923ECF79C91A5
:10075000987F903211F0983529F44083908194FD70
:10076000FDCFE6CFDF91CF9108950E9466030895F3
:1007700084E98093BC0008958093BB0084E8809353
:10078000BC00ECEBF0E080818823ECF79091B9009D
:10079000987F81E0983209F480E0089584EC80939A
:1007A000BC00ECEBF0E080818823ECF78091BB008B
:1007B000089584E88093BC00ECEBF0E0808188230E
:1007C000ECF78091BB0008950E94550408F481E085
:1007D00008950E94810488F09F5798F0B92F9927B7
:1007E000B751B0F0E1F0660F771F881F991F1AF01C
:1007F000BA95C9F714C0B13091F00E949B04B1E0E2
:1008000008950C949B04672F782F8827B85F39F0E0
:10081000B93FCCF3869577956795B395D9F73EF4B4
:1008200090958095709561957F4F8F4F9F4F08955C
:10083000E89409C097FB3EF490958095709561957A
:100840007F4F8F4F9F4F9923A9F0F92F96E9BB2730
:100850009395F695879577956795B795F111F8CFAC
:10086000FAF4BB0F11F460FF1BC06F5F7F4F8F4F17
:100870009F4F16C0882311F096E911C0772321F00D
:100880009EE8872F762F05C0662371F096E8862FA5
:1008900070E060E02AF09A95660F771F881FDAF7FC
:1008A000880F9695879597F90895990F0008550F29
:1008B000AA0BE0E8FEEF16161706E807F907C0F0E6
:1008C00012161306E407F50798F0621B730B840BEE
:1008D000950B39F40A2661F0232B242B252B21F4C8
:1008E00008950A2609F4A140A6958FEF811D811D68
:1008F000089557FD9058440F551F59F05F3F71F010
:100900004795880F97FB991F61F09F3F79F0879576
:100910000895121613061406551FF2CF4695F1DFFF
:1009200008C0161617061806991FF1CF869571058F
:10093000610508940895E894BB2766277727CB01C3
:1009400097F908950E94550408F48FEF08950E94C6
:10095000BA040C942B050E941D0538F00E94240552
:1009600020F0952311F00C9414050C941A05112411
:100970000C949C040E94790470F3959FC1F3950F29
:1009800050E0551F629FF001729FBB27F00DB11D13
:10099000639FAA27F00DB11DAA1F649F6627B00DA3
:1009A000A11D661F829F2227B00DA11D621F739F8C
:1009B000B00DA11D621F839FA00D611D221F749F9A
:1009C0003327A00D611D231F849F600D211D822FE1
:1009D000762F6A2F11249F5750409AF0F1F0882308
:1009E0004AF0EE0FFF1FBB1F661F771F881F915035
:1009F0005040A9F79E3F510580F00C9414050C94CB
:100A00009C045F3FE4F3983ED4F386957795679511
:100A1000B795F795E7959F5FC1F7FE2B880F911D5E
:100A20009695879597F9089597F99F6780E870E004
:100A300060E008959FEF80EC089500240A94161654
:100A4000170618060906089500240A9412161306BC
:100A5000140605060895092E0394000C11F488234A
:100A600052F0BB0F40F4BF2B11F460FF04C06F5F66
:100A70007F4F8F4F9F4F0895A1E21A2EAA1BBB1BD9
:100A8000FD010DC0AA1FBB1FEE1FFF1FA217B3075A
:100A9000E407F50720F0A21BB30BE40BF50B661F70
:100AA000771F881F991F1A9469F760957095809534
:100AB00090959B01AC01BD01CF010895EF920F937A
:100AC0001F93CF93DF93E80147FD02C034E001C0DC
:100AD00034E1042E000C550B57FF03C0519541958E
:100AE0005109E32E022F242FAE010E94F506CE01FC
:100AF000DF91CF911F910F91EF9008950F931F9366
:100B0000CF93DF938230910510F482E090E0E09182
:100B1000E101F091E20120E030E0A0E0B0E03097A8
:100B200019F1408151810281138148175907C8F09A
:100B30008417950769F4109731F012960C93129769
:100B400013961C9327C00093E1011093E20122C089
:100B50002115310519F04217530718F49A01BD0108
:100B6000EF01DF01F801DBCF21153105F9F0281B7A
:100B7000390B2430310580F48A819B816115710520
:100B800021F0FB019383828304C09093E201809360
:100B9000E101FE01329644C0FE01E20FF31F819392
:100BA000919322503109398328833AC02091DF0183
:100BB0003091E001232B41F4209103013091040195
:100BC0003093E0012093DF01209101013091020177
:100BD0002115310541F42DB73EB7409105015091E3
:100BE0000601241B350BE091DF01F091E001E217D3
:100BF000F307A0F42E1B3F0B2817390778F0AC0140
:100C00004E5F5F4F2417350748F04E0F5F1F50931C
:100C1000E0014093DF018193919302C0E0E0F0E0B6
:100C2000CF01DF91CF911F910F910895CF93DF9363
:100C3000009709F481C0FC01329713821282A091BF
:100C4000E101B091E201109781F420813181820F9E
:100C5000931F2091DF013091E0012817390751F5EA
:100C6000F093E001E093DF0167C0ED0120E030E0A8
:100C7000CE17DF0740F44A815B819E014115510583
:100C8000F1F0EA01F5CFD383C28340815181840F13
:100C9000951FC817D90759F488819981840F951F2A
:100CA0000296918380838A819B819383828321151D
:100CB000310529F4F093E201E093E1013DC0E9013F
:100CC000FB83EA8349915991C40FD51FEC17FD07A7
:100CD00061F480819181840F951F0296E9019983C7
:100CE0008883828193819B838A83E0E0F0E012967F
:100CF0008D919C911397009719F0FD01DC01F7CFBE
:100D00008D919C9111979D012E5F3F4F820F931FF4
:100D10002091DF013091E0012817390769F43097FD
:100D200029F41092E2011092E10102C013821282B2
:100D3000B093E001A093DF01DF91CF910895662782
:100D400077270C944F08FC0188279927E894219174
:100D50002032E9F3293010F02E30C8F32B3241F065
:100D60002D3239F4689404C00E94ED06820F911D63
:100D7000219120532A30C0F31EF4909581959F4F06
:100D8000089547E551E00E94C6060895FA01A19131
:100D9000B081009719F41097E1F0CD01DC01CD018D
:100DA0000D90002011F4C00113C0FB0121912223FA
:100DB00019F02015D9F7F3CFFB012191201519F473
:100DC0001E92119606C02223C1F70D900020A1F7B4
:100DD000D001FA01A193B08308957AE0979F902DF6
:100DE000879F802D910D11240895A9E0B0E0EBEFCD
:100DF000F6E00C94AA0A6A01122FB02E2BE32017FA
:100E000020F0FF24F394F00E02C02CE3F22E0F2DFD
:100E100027E0AE014F5F5F4F0E949D09BC014981F1
:100E2000842F8970813031F0E1FC06C0E0FE06C0FD
:100E300090E205C09DE203C09BE201C090E05E2D00
:100E4000507143FF3CC0911102C083E001C084E0B7
:100E5000811718F4212F281B01C020E051110BC06D
:100E6000F601822F30E2882319F031938150FBCFB5
:100E7000C20ED11C20E0992329F0D6019C93F601E3
:100E800031966F01C6010396E2FE0AC03EE4D60128
:100E90003C9341E411964C93119712963C9306C0F3
:100EA0003EE6F601308341E641833283FC01322F76
:100EB00040E2332309F442C041933150FACF42FF5C
:100EC00044C0911102C083E001C084E0811718F48E
:100ED000212F281B01C020E051110BC0F601822FE9
:100EE00030E2882319F031938150FBCFC20ED11C20
:100EF00020E0992329F0D6019C93F60131966F01E9
:100F0000C6010396E2FE0BC039E4D6013C933EE4F1
:100F100011963C93119736E412963C9307C039E63C
:100F2000F60130833EE6318336E63283FC01322F10
:100F300040E2332319F041933150FBCFFC01E20F23
:100F4000F11D10828EEF9FEFA6C021E030E09111DD
:100F500002C020E030E0161617061CF4FB013196A3
:100F600002C0E1E0F0E02E0F3F1FBB2021F0EB2D8F
:100F7000F0E0319602C0E0E0F0E02E0F3F1FE12FDD
:100F8000F0E02E173F071CF4121B212F01C020E0B8
:100F90008E2D887159F4F601822F30E2882319F0E2
:100FA00031938150FBCFC20ED11C20E0992329F050
:100FB000D6019C93F60131966F0151110BC0F601D9
:100FC000822F90E3882319F091938150FBCFC20EBA
:100FD000D11C20E00F2D060F9A81342F307144FF71
:100FE00003C0913309F40150101624F4093018F0AD
:100FF00008E001C001E0AB0177FF02C040E050E033
:10100000FB01E41BF50BA1E0B0E0AC0FBD1FEA0F44
:10101000FB1F8EE2A82E4B01801A91080B2D10E0C9
:101020001195019511094F3FBFEF5B0721F4D601E0
:10103000AC9211966D01641775072CF08416950615
:1010400014F4818101C080E3415051093196D601E9
:1010500011967D014017510724F0D6018C9367014A
:10106000E2CF6417750739F4963320F4953319F4F9
:10107000311101C081E3F6018083F701822F90E2F4
:10108000882319F091938150FBCFF701E20FF11DF6
:10109000108280E090E02996ECE00C94C60AA0E073
:1010A000B0E0E5E5F8E00C94AA0AEC016B016115EB
:1010B000710519F0FB01918380837E01FFEFEF1A28
:1010C000FF0A0881802F90E00E94750A892B11F099
:1010D000E701F3CF0D3239F47E0182E0E80EF11C16
:1010E000098111E008C00B3229F47E0192E0E90E7B
:1010F000F11C098110E0E701219743E050E060E72F
:1011000070E0CE010E947E0A892BC1F4239645E04F
:1011100050E06BE670E0CE010E947E0A892B09F454
:101120002596C114D10419F0F601D183C0831111A1
:10113000F6C060E070E080E89FE7FAC043E050E06E
:1011400068E670E0CE010E947E0A892B59F4C11432
:10115000D10409F4E9C0F2E0EF0EF11CF601F182CE
:10116000E082E2C020E030E0A901C0E0D0E0F70179
:1011700080EDA82EA00E89E08A1530F1912F9260A3
:10118000B92E812F887012FF04C0811124C02196CE
:1011900022C081112197A5E0B0E00E94990ADC01EC
:1011A000CB01880F991FAA1FBB1F9C01AD012A0DFF
:1011B000311D411D511D283989E93807480789E14A
:1011C000580748F0166006C09EEFA9120AC013FD2A
:1011D00040C01860B12E8FEFE81AF80A00811B2D6D
:1011E000C6CF802F8F7D8534A1F580818D3211F49B
:1011F000106106C08B3221F0319661E070E004C0CE
:101200008181329662E070E080538A3018F0E61BEC
:10121000F70B1FC060E070E060389CE079075CF479
:10122000DB01AA0FBB1FAA0FBB1F6A0F7B1F660F34
:10123000771F680F711D3196DF0111978C918053D4
:101240008A3050F314FF03C0719561957109C60F80
:10125000D71F11FF08C0C114D10429F0CF01019795
:10126000F60191838083CA01B9010E941804212FDD
:101270002370233019F04B015C0106C04B015C0167
:10128000B7FAB094B7F8B09420E030E0A901C501F6
:10129000B4010E94E403882309F43EC0D7FF06C0CE
:1012A000D195C195D10907E810E002C00FE910E01F
:1012B0006801F8E1CF1AD10890E2E92EF12CCE15A1
:1012C000DF0574F0F8012591359145915491C501E0
:1012D000B4010E94A7044B015C01CE19DF09EFCFD6
:1012E00004501109F594E7940C151D0541F78A2D5A
:1012F000880F8B2D881F8F3F49F020E030E0A90137
:10130000C501B4010E94E403811106C082E290E0AD
:101310009093E4018093E301C501B40109C060E04A
:1013200070E080E89FEF04C060E070E080EC9FE731
:10133000CDB7DEB7ECE00C94C60A283008F027E001
:101340003327DA01990F311D87FD91600096610501
:10135000710539F432602E5F3D9330E32A95E1F751
:1013600008959F3F30F080387105610509F03C5FBA
:101370003C5F3D93913008F08068911DDF93CF93DF
:101380001F930F93FF92EF92192F987F9695E92F55
:1013900096959695E90FFF27E350FF4F992733273E
:1013A000EE24FF24A701E70105900894079428F490
:1013B000360FE71EF81E491F511D660F771F881F45
:1013C000991F0694A1F70590079428F4E70EF81EDC
:1013D000491F561FC11D770F881F991F661F06944E
:1013E000A1F70590079428F4F80E491F561FC71F50
:1013F000D11D880F991F661F771F0694A1F70590CE
:10140000079420F4490F561FC71FD81F990F661F56
:10141000771F881F0694A9F784911095177041F0E3
:10142000D695C79557954795F794E7941A95C1F7C0
:10143000E3EAF0E0689415901591359165919591E6
:1014400005907FE27395E118F10A430B560BC90B27
:10145000D009C0F7E10CF11E431F561FC91FD01D54
:101460007EF4703311F48A95E6CFE894015030F0A1
:10147000080F0AF40027021708F4202F2395022FE3
:101480007A3328F079E37D932A95E9F710C07D93AC
:101490002A9589F606949795679537951795179429
:1014A000E118F10A430B560BC90BD00998F02395AC
:1014B0007E9173957A3308F070E37C932013B8F72C
:1014C0007E9170617D9330F0839571E37D9370E33D
:1014D0002A95E1F71124EF90FF900F911F91CF9182
:1014E000DF91992787FD9095089591110C94960AA4
:1014F000803219F089508550C8F70895FB01DC014E
:101500004150504088F08D9181341CF08B350CF4A3
:10151000805E659161341CF06B350CF4605E861B57
:10152000611171F3990B0895881BFCCF99278827C7
:1015300008950E94DB0AA59F900DB49F900DA49F73
:10154000800D911D112408952F923F924F925F922A
:101550006F927F928F929F92AF92BF92CF92DF92C3
:10156000EF92FF920F931F93CF93DF93CDB7DEB728
:10157000CA1BDB0B0FB6F894DEBF0FBECDBF0994BC
:101580002A88398848885F846E847D848C849B8413
:10159000AA84B984C884DF80EE80FD800C811B8121
:1015A000AA81B981CE0FD11D0FB6F894DEBF0FBE50
:1015B000CDBFED010895A29FB001B39FC001A39FCD
:1015C000700D811D1124911DB29F700D811D11247C
:0815D000911D0895F894FFCF6E
:1015D800010000E5012000808D99A5B1BCC7D1DBD1
:1015E800E3EAF1F6FAFEFF00FFFEFAF6F1EAE3DBC2
:1015F800D1C7BCB1A5998D8073675B4F44392F253E
:101608001D160F0A060201000102060A0F161D2503
:101618002F39444F5B677356203D20005374617225
:061628007465642100005E
:00000001FF
